{
  "abi": [
    {
      "anonymous": false,
      "inputs": [
        {
          "indexed": true,
          "internalType": "bytes32",
          "name": "templateId",
          "type": "bytes32"
        },
        {
          "indexed": false,
          "internalType": "address",
          "name": "airnode",
          "type": "address"
        },
        {
          "indexed": false,
          "internalType": "bytes32",
          "name": "endpointId",
          "type": "bytes32"
        },
        {
          "indexed": false,
          "internalType": "bytes",
          "name": "parameters",
          "type": "bytes"
        }
      ],
      "name": "CreatedTemplate",
      "type": "event"
    },
    {
      "inputs": [
        {
          "internalType": "address",
          "name": "airnode",
          "type": "address"
        },
        {
          "internalType": "bytes32",
          "name": "endpointId",
          "type": "bytes32"
        },
        {
          "internalType": "bytes",
          "name": "parameters",
          "type": "bytes"
        }
      ],
      "name": "createTemplate",
      "outputs": [
        {
          "internalType": "bytes32",
          "name": "templateId",
          "type": "bytes32"
        }
      ],
      "stateMutability": "nonpayable",
      "type": "function"
    },
    {
      "inputs": [
        {
          "internalType": "bytes32[]",
          "name": "templateIds",
          "type": "bytes32[]"
        }
      ],
      "name": "getTemplates",
      "outputs": [
        {
          "internalType": "address[]",
          "name": "airnodes",
          "type": "address[]"
        },
        {
          "internalType": "bytes32[]",
          "name": "endpointIds",
          "type": "bytes32[]"
        },
        {
          "internalType": "bytes[]",
          "name": "parameters",
          "type": "bytes[]"
        }
      ],
      "stateMutability": "view",
      "type": "function"
    },
    {
      "inputs": [
        {
          "internalType": "bytes32",
          "name": "",
          "type": "bytes32"
        }
      ],
      "name": "templates",
      "outputs": [
        {
          "internalType": "address",
          "name": "airnode",
          "type": "address"
        },
        {
          "internalType": "bytes32",
          "name": "endpointId",
          "type": "bytes32"
        },
        {
          "internalType": "bytes",
          "name": "parameters",
          "type": "bytes"
        }
      ],
      "stateMutability": "view",
      "type": "function"
    }
  ],
  "bytecode": {
    "object": "0x608060405234801561001057600080fd5b5061098b806100206000396000f3fe608060405234801561001057600080fd5b50600436106100415760003560e01c80630a6315761461004657806332393f2b1461007157806376428c9b14610092575b600080fd5b6100596100543660046105be565b6100b4565b60405161006893929190610624565b60405180910390f35b61008461007f366004610654565b610169565b604051908152602001610068565b6100a56100a03660046106e9565b6102dc565b604051610068939291906107b3565b6000602081905290815260409020805460018201546002830180546001600160a01b039093169391926100e69061084a565b80601f01602080910402602001604051908101604052809291908181526020018280546101129061084a565b801561015f5780601f106101345761010080835404028352916020019161015f565b820191906000526020600020905b81548152906001019060200180831161014257829003601f168201915b5050505050905083565b60006001600160a01b0385166101bc5760405162461bcd60e51b81526020600482015260146024820152734169726e6f64652061646472657373207a65726f60601b604482015260640160405180910390fd5b848484846040516020016101d39493929190610885565b6040516020818303038152906040528051906020012090506040518060600160405280866001600160a01b0316815260200185815260200184848080601f01602080910402602001604051908101604052809392919081815260200183838082843760009201829052509390945250508381526020818152604091829020845181546001600160a01b0319166001600160a01b039091161781558482015160018201559184015180519293506102929260028501929190910190610525565b50905050807fba204bad31c4ec4b9b54164af94ae10c4e7312f22c0f9c065d6319c928ec9e7a868686866040516102cc94939291906108b8565b60405180910390a2949350505050565b606080808367ffffffffffffffff8111156102f9576102f9610900565b604051908082528060200260200182016040528015610322578160200160208202803683370190505b5092508367ffffffffffffffff81111561033e5761033e610900565b604051908082528060200260200182016040528015610367578160200160208202803683370190505b5091508367ffffffffffffffff81111561038357610383610900565b6040519080825280602002602001820160405280156103b657816020015b60608152602001906001900390816103a15790505b50905060005b8481101561051d5760008060008888858181106103db576103db610916565b90506020020135815260200190815260200160002090508060000160009054906101000a90046001600160a01b031685838151811061041c5761041c610916565b60200260200101906001600160a01b031690816001600160a01b031681525050806001015484838151811061045357610453610916565b60200260200101818152505080600201805461046e9061084a565b80601f016020809104026020016040519081016040528092919081815260200182805461049a9061084a565b80156104e75780601f106104bc576101008083540402835291602001916104e7565b820191906000526020600020905b8154815290600101906020018083116104ca57829003601f168201915b50505050508383815181106104fe576104fe610916565b60200260200101819052505080806105159061092c565b9150506103bc565b509250925092565b8280546105319061084a565b90600052602060002090601f0160209004810192826105535760008555610599565b82601f1061056c57805160ff1916838001178555610599565b82800160010185558215610599579182015b8281111561059957825182559160200191906001019061057e565b506105a59291506105a9565b5090565b5b808211156105a557600081556001016105aa565b6000602082840312156105d057600080fd5b5035919050565b6000815180845260005b818110156105fd576020818501810151868301820152016105e1565b8181111561060f576000602083870101525b50601f01601f19169290920160200192915050565b60018060a01b038416815282602082015260606040820152600061064b60608301846105d7565b95945050505050565b6000806000806060858703121561066a57600080fd5b84356001600160a01b038116811461068157600080fd5b935060208501359250604085013567ffffffffffffffff808211156106a557600080fd5b818701915087601f8301126106b957600080fd5b8135818111156106c857600080fd5b8860208285010111156106da57600080fd5b95989497505060200194505050565b600080602083850312156106fc57600080fd5b823567ffffffffffffffff8082111561071457600080fd5b818501915085601f83011261072857600080fd5b81358181111561073757600080fd5b8660208260051b850101111561074c57600080fd5b60209290920196919550909350505050565b600081518084526020808501808196508360051b8101915082860160005b858110156107a65782840389526107948483516105d7565b9885019893509084019060010161077c565b5091979650505050505050565b606080825284519082018190526000906020906080840190828801845b828110156107f55781516001600160a01b0316845292840192908401906001016107d0565b5050508381038285015285518082528683019183019060005b8181101561082a5783518352928401929184019160010161080e565b5050848103604086015261083e818761075e565b98975050505050505050565b600181811c9082168061085e57607f821691505b6020821081141561087f57634e487b7160e01b600052602260045260246000fd5b50919050565b6bffffffffffffffffffffffff198560601b16815283601482015281836034830137600091016034019081529392505050565b6001600160a01b0385168152602081018490526060604082018190528101829052818360808301376000818301608090810191909152601f909201601f191601019392505050565b634e487b7160e01b600052604160045260246000fd5b634e487b7160e01b600052603260045260246000fd5b600060001982141561094e57634e487b7160e01b600052601160045260246000fd5b506001019056fea26469706673582212206e3b26149037393cbc970a5b1e855949b7a7195bf6694cc2b25afa795ad9f61a64736f6c63430008090033",
    "linkReferences": {}
  },
  "methodIdentifiers": {
    "createTemplate(address,bytes32,bytes)": "32393f2b",
    "getTemplates(bytes32[])": "76428c9b",
    "templates(bytes32)": "0a631576"
  },
  "id": 3
}