{
  "abi": [
    {
      "anonymous": false,
      "inputs": [
        {
          "indexed": true,
          "internalType": "address",
          "name": "airnode",
          "type": "address"
        },
        {
          "indexed": true,
          "internalType": "address",
          "name": "sponsor",
          "type": "address"
        },
        {
          "indexed": true,
          "internalType": "bytes32",
          "name": "withdrawalRequestId",
          "type": "bytes32"
        },
        {
          "indexed": false,
          "internalType": "address",
          "name": "sponsorWallet",
          "type": "address"
        },
        {
          "indexed": false,
          "internalType": "uint256",
          "name": "amount",
          "type": "uint256"
        }
      ],
      "name": "FulfilledWithdrawal",
      "type": "event"
    },
    {
      "anonymous": false,
      "inputs": [
        {
          "indexed": true,
          "internalType": "address",
          "name": "airnode",
          "type": "address"
        },
        {
          "indexed": true,
          "internalType": "address",
          "name": "sponsor",
          "type": "address"
        },
        {
          "indexed": true,
          "internalType": "bytes32",
          "name": "withdrawalRequestId",
          "type": "bytes32"
        },
        {
          "indexed": false,
          "internalType": "address",
          "name": "sponsorWallet",
          "type": "address"
        }
      ],
      "name": "RequestedWithdrawal",
      "type": "event"
    },
    {
      "inputs": [
        {
          "internalType": "bytes32",
          "name": "withdrawalRequestId",
          "type": "bytes32"
        },
        {
          "internalType": "address",
          "name": "airnode",
          "type": "address"
        },
        {
          "internalType": "address",
          "name": "sponsor",
          "type": "address"
        }
      ],
      "name": "fulfillWithdrawal",
      "outputs": [],
      "stateMutability": "payable",
      "type": "function"
    },
    {
      "inputs": [
        {
          "internalType": "address",
          "name": "airnode",
          "type": "address"
        },
        {
          "internalType": "address",
          "name": "sponsorWallet",
          "type": "address"
        }
      ],
      "name": "requestWithdrawal",
      "outputs": [],
      "stateMutability": "nonpayable",
      "type": "function"
    },
    {
      "inputs": [
        {
          "internalType": "address",
          "name": "",
          "type": "address"
        }
      ],
      "name": "sponsorToWithdrawalRequestCount",
      "outputs": [
        {
          "internalType": "uint256",
          "name": "",
          "type": "uint256"
        }
      ],
      "stateMutability": "view",
      "type": "function"
    }
  ],
  "bytecode": {
    "object": "0x608060405234801561001057600080fd5b5061046e806100206000396000f3fe6080604052600436106100345760003560e01c80631d414cbd146100395780633c7fe5e31461005b578063f8fa73a11461006e575b600080fd5b34801561004557600080fd5b5061005961005436600461037e565b6100ad565b005b6100596100693660046103b1565b6101c3565b34801561007a57600080fd5b5061009b6100893660046103ed565b60006020819052908152604090205481565b60405190815260200160405180910390f35b33600081815260208190526040812080549192469230929085906100d09061040f565b91829055506040805160208101959095526001600160601b0319606094851b8116918601919091529190921b166054830152606882015260880160408051601f198184030181529082905280516020918201206001600160601b0319606087811b82169385019390935233831b811660348501529185901b90911660488301529150605c0160408051808303601f19018152828252805160209182012060008581526001835292909220919091556001600160a01b03848116835283923392918716917fd48d52c7c6d0c940f3f8d07591e1800ef3a70daf79929a97ccd80b4494769fc7910160405180910390a4505050565b6040516001600160601b0319606084811b8216602084015283811b8216603484015233901b166048820152605c0160408051601f19818403018152918152815160209283012060008681526001909352912054146102685760405162461bcd60e51b815260206004820152601e60248201527f496e76616c6964207769746864726177616c2066756c66696c6c6d656e74000060448201526064015b60405180910390fd5b6000838152600160209081526040808320929092558151338152349181019190915284916001600160a01b0380851692908616917fadb4840bbd5f924665ae7e0e0c83de5c0fb40a98c9b57dba53a6c978127a622e910160405180910390a46000816001600160a01b03163460405160006040518083038185875af1925050503d8060008114610314576040519150601f19603f3d011682016040523d82523d6000602084013e610319565b606091505b505090508061035c5760405162461bcd60e51b815260206004820152600f60248201526e151c985b9cd9995c8819985a5b1959608a1b604482015260640161025f565b50505050565b80356001600160a01b038116811461037957600080fd5b919050565b6000806040838503121561039157600080fd5b61039a83610362565b91506103a860208401610362565b90509250929050565b6000806000606084860312156103c657600080fd5b833592506103d660208501610362565b91506103e460408501610362565b90509250925092565b6000602082840312156103ff57600080fd5b61040882610362565b9392505050565b600060001982141561043157634e487b7160e01b600052601160045260246000fd5b506001019056fea26469706673582212201adf5ed18e967dc78f53c4fd01a935fc48beb85fcd7b6e1df603e1ca874c9b4c64736f6c63430008090033",
    "linkReferences": {}
  },
  "methodIdentifiers": {
    "fulfillWithdrawal(bytes32,address,address)": "3c7fe5e3",
    "requestWithdrawal(address,address)": "1d414cbd",
    "sponsorToWithdrawalRequestCount(address)": "f8fa73a1"
  },
  "id": 4
}