{
  "abi": [
    {
      "inputs": [
        {
          "internalType": "address",
          "name": "_airnodeRrp",
          "type": "address"
        }
      ],
      "stateMutability": "nonpayable",
      "type": "constructor"
    },
    {
      "anonymous": false,
      "inputs": [
        {
          "indexed": true,
          "internalType": "bytes32",
          "name": "requestId",
          "type": "bytes32"
        },
        {
          "indexed": false,
          "internalType": "uint256",
          "name": "response",
          "type": "uint256"
        }
      ],
      "name": "ReceivedUint256",
      "type": "event"
    },
    {
      "anonymous": false,
      "inputs": [
        {
          "indexed": true,
          "internalType": "bytes32",
          "name": "requestId",
          "type": "bytes32"
        },
        {
          "indexed": false,
          "internalType": "uint256[]",
          "name": "response",
          "type": "uint256[]"
        }
      ],
      "name": "ReceivedUint256Array",
      "type": "event"
    },
    {
      "anonymous": false,
      "inputs": [
        {
          "indexed": true,
          "internalType": "bytes32",
          "name": "requestId",
          "type": "bytes32"
        }
      ],
      "name": "RequestedUint256",
      "type": "event"
    },
    {
      "anonymous": false,
      "inputs": [
        {
          "indexed": true,
          "internalType": "bytes32",
          "name": "requestId",
          "type": "bytes32"
        },
        {
          "indexed": false,
          "internalType": "uint256",
          "name": "size",
          "type": "uint256"
        }
      ],
      "name": "RequestedUint256Array",
      "type": "event"
    },
    {
      "inputs": [],
      "name": "airnode",
      "outputs": [
        {
          "internalType": "address",
          "name": "",
          "type": "address"
        }
      ],
      "stateMutability": "view",
      "type": "function"
    },
    {
      "inputs": [],
      "name": "airnodeRrp",
      "outputs": [
        {
          "internalType": "contract IAirnodeRrpV0",
          "name": "",
          "type": "address"
        }
      ],
      "stateMutability": "view",
      "type": "function"
    },
    {
      "inputs": [],
      "name": "endpointIdUint256",
      "outputs": [
        {
          "internalType": "bytes32",
          "name": "",
          "type": "bytes32"
        }
      ],
      "stateMutability": "view",
      "type": "function"
    },
    {
      "inputs": [],
      "name": "endpointIdUint256Array",
      "outputs": [
        {
          "internalType": "bytes32",
          "name": "",
          "type": "bytes32"
        }
      ],
      "stateMutability": "view",
      "type": "function"
    },
    {
      "inputs": [
        {
          "internalType": "bytes32",
          "name": "",
          "type": "bytes32"
        }
      ],
      "name": "expectingRequestWithIdToBeFulfilled",
      "outputs": [
        {
          "internalType": "bool",
          "name": "",
          "type": "bool"
        }
      ],
      "stateMutability": "view",
      "type": "function"
    },
    {
      "inputs": [
        {
          "internalType": "bytes32",
          "name": "requestId",
          "type": "bytes32"
        },
        {
          "internalType": "bytes",
          "name": "data",
          "type": "bytes"
        }
      ],
      "name": "fulfillUint256Array",
      "outputs": [],
      "stateMutability": "nonpayable",
      "type": "function"
    },
    {
      "inputs": [
        {
          "internalType": "uint256",
          "name": "num",
          "type": "uint256"
        }
      ],
      "name": "requestArrayOfUints",
      "outputs": [],
      "stateMutability": "nonpayable",
      "type": "function"
    },
    {
      "inputs": [
        {
          "internalType": "address",
          "name": "_airnode",
          "type": "address"
        },
        {
          "internalType": "bytes32",
          "name": "_endpointIdUint256",
          "type": "bytes32"
        },
        {
          "internalType": "bytes32",
          "name": "_endpointIdUint256Array",
          "type": "bytes32"
        },
        {
          "internalType": "address",
          "name": "_sponsorWallet",
          "type": "address"
        }
      ],
      "name": "setRequestParameters",
      "outputs": [],
      "stateMutability": "nonpayable",
      "type": "function"
    },
    {
      "inputs": [],
      "name": "sponsorWallet",
      "outputs": [
        {
          "internalType": "address",
          "name": "",
          "type": "address"
        }
      ],
      "stateMutability": "view",
      "type": "function"
    }
  ],
  "bytecode": {
    "object": "0x60a060405234801561001057600080fd5b506040516108fb3803806108fb83398101604081905261002f916100b0565b6001600160a01b0381166080819052604051632b77c09f60e21b81523060048201526001602482015282919063addf027c90604401600060405180830381600087803b15801561007e57600080fd5b505af1158015610092573d6000803e3d6000fd5b5050600080546001600160a01b03191633179055506100e092505050565b6000602082840312156100c257600080fd5b81516001600160a01b03811681146100d957600080fd5b9392505050565b6080516107f36101086000396000818160f40152818161019b01526103fc01526107f36000f3fe608060405234801561001057600080fd5b50600436106100935760003560e01c806371bab6661161006657806371bab666146100ef578063851244f71461012e578063a19954af14610161578063a36ff4d81461016a578063bf90fb4e1461017d57600080fd5b806307b9fc57146100985780630d31d52a146100b4578063405cc6e6146100c95780635675e4e4146100dc575b600080fd5b6100a160025481565b6040519081526020015b60405180910390f35b6100c76100c23660046104f5565b610190565b005b6100c76100d7366004610571565b6102c6565b6100c76100ea3660046105a6565b61031f565b6101167f000000000000000000000000000000000000000000000000000000000000000081565b6040516001600160a01b0390911681526020016100ab565b61015161013c366004610571565b60056020526000908152604090205460ff1681565b60405190151581526020016100ab565b6100a160035481565b600154610116906001600160a01b031681565b600454610116906001600160a01b031681565b336001600160a01b037f000000000000000000000000000000000000000000000000000000000000000016146102065760405162461bcd60e51b8152602060048201526016602482015275043616c6c6572206e6f74204169726e6f6465205252560541b60448201526064015b60405180910390fd5b60008381526005602052604090205460ff166102645760405162461bcd60e51b815260206004820181905260248201527f52657175657374204944206e6f74206b626c6f636b2e74696d657374616d706e60448201526064016101fd565b6000838152600560205260408120805460ff1916905561028682840184610602565b9050837f47b5f552f55573ad9b766ef18360830d3e90ecdfbef4c7bea49379a0ce64913c826040516102b891906106c0565b60405180910390a250505050565b6000546001600160a01b031633146103135760405162461bcd60e51b815260206004820152601060248201526f29b2b73232b9103737ba1037bbb732b960811b60448201526064016101fd565b61031c816103a6565b50565b6000546001600160a01b0316331461036c5760405162461bcd60e51b815260206004820152601060248201526f29b2b73232b9103737ba1037bbb732b960811b60448201526064016101fd565b600180546001600160a01b039586166001600160a01b03199182161790915560029390935560039190915560048054919093169116179055565b6001546003546004546040805161317560f01b60208201526373697a6560e01b818301526060808201879052825180830390910181526080820192839052636e6be03f60e01b9092526000946001600160a01b037f0000000000000000000000000000000000000000000000000000000000000000811695636e6be03f95610447959383169491933093909116918391630698ea9560e11b91608401610704565b602060405180830381600087803b15801561046157600080fd5b505af1158015610475573d6000803e3d6000fd5b505050506040513d601f19601f8201168201806040525081019061049991906107a4565b60008181526005602052604090819020805460ff191660011790555190915081907f6529de56040715a55618ee5797cd3bc856b65ded8fee01e2a24c8481de9e2aaf906104e99085815260200190565b60405180910390a25050565b60008060006040848603121561050a57600080fd5b83359250602084013567ffffffffffffffff8082111561052957600080fd5b818601915086601f83011261053d57600080fd5b81358181111561054c57600080fd5b87602082850101111561055e57600080fd5b6020830194508093505050509250925092565b60006020828403121561058357600080fd5b5035919050565b80356001600160a01b03811681146105a157600080fd5b919050565b600080600080608085870312156105bc57600080fd5b6105c58561058a565b935060208501359250604085013591506105e16060860161058a565b905092959194509250565b634e487b7160e01b600052604160045260246000fd5b6000602080838503121561061557600080fd5b823567ffffffffffffffff8082111561062d57600080fd5b818501915085601f83011261064157600080fd5b813581811115610653576106536105ec565b8060051b604051601f19603f83011681018181108582111715610678576106786105ec565b60405291825284820192508381018501918883111561069657600080fd5b938501935b828510156106b45784358452938501939285019261069b565b98975050505050505050565b6020808252825182820181905260009190848201906040850190845b818110156106f8578351835292840192918401916001016106dc565b50909695505050505050565b6001600160a01b03888116825260208083018990528782166040840152868216606084015290851660808301526001600160e01b0319841660a083015260e060c083018190528351908301819052600091825b828110156107745785810182015185820161010001528101610757565b8281111561078757600061010084870101525b5050601f01601f1916919091016101000198975050505050505050565b6000602082840312156107b657600080fd5b505191905056fea26469706673582212200cf4d0daa50e537a48ef79594bc38ed63ed6d064b27800008f118ef340f9351164736f6c63430008090033",
    "linkReferences": {}
  },
  "methodIdentifiers": {
    "airnode()": "a36ff4d8",
    "airnodeRrp()": "71bab666",
    "endpointIdUint256()": "07b9fc57",
    "endpointIdUint256Array()": "a19954af",
    "expectingRequestWithIdToBeFulfilled(bytes32)": "851244f7",
    "fulfillUint256Array(bytes32,bytes)": "0d31d52a",
    "requestArrayOfUints(uint256)": "405cc6e6",
    "setRequestParameters(address,bytes32,bytes32,address)": "5675e4e4",
    "sponsorWallet()": "bf90fb4e"
  },
  "id": 18
}