{
  "abi": [
    {
      "inputs": [
        {
          "internalType": "address",
          "name": "_airnodeRrp",
          "type": "address"
        }
      ],
      "stateMutability": "nonpayable",
      "type": "constructor"
    },
    {
      "anonymous": false,
      "inputs": [
        {
          "indexed": true,
          "internalType": "bytes32",
          "name": "requestId",
          "type": "bytes32"
        },
        {
          "indexed": false,
          "internalType": "uint256",
          "name": "response",
          "type": "uint256"
        }
      ],
      "name": "ReceivedUint256",
      "type": "event"
    },
    {
      "anonymous": false,
      "inputs": [
        {
          "indexed": true,
          "internalType": "bytes32",
          "name": "requestId",
          "type": "bytes32"
        },
        {
          "indexed": false,
          "internalType": "uint256[]",
          "name": "response",
          "type": "uint256[]"
        }
      ],
      "name": "ReceivedUint256Array",
      "type": "event"
    },
    {
      "anonymous": false,
      "inputs": [
        {
          "indexed": true,
          "internalType": "bytes32",
          "name": "requestId",
          "type": "bytes32"
        }
      ],
      "name": "RequestedUint256",
      "type": "event"
    },
    {
      "anonymous": false,
      "inputs": [
        {
          "indexed": true,
          "internalType": "bytes32",
          "name": "requestId",
          "type": "bytes32"
        },
        {
          "indexed": false,
          "internalType": "uint256",
          "name": "size",
          "type": "uint256"
        }
      ],
      "name": "RequestedUint256Array",
      "type": "event"
    },
    {
      "inputs": [],
      "name": "airnode",
      "outputs": [
        {
          "internalType": "address",
          "name": "",
          "type": "address"
        }
      ],
      "stateMutability": "view",
      "type": "function"
    },
    {
      "inputs": [],
      "name": "airnodeRrp",
      "outputs": [
        {
          "internalType": "contract IAirnodeRrpV0",
          "name": "",
          "type": "address"
        }
      ],
      "stateMutability": "view",
      "type": "function"
    },
    {
      "inputs": [],
      "name": "endpointIdUint256",
      "outputs": [
        {
          "internalType": "bytes32",
          "name": "",
          "type": "bytes32"
        }
      ],
      "stateMutability": "view",
      "type": "function"
    },
    {
      "inputs": [],
      "name": "endpointIdUint256Array",
      "outputs": [
        {
          "internalType": "bytes32",
          "name": "",
          "type": "bytes32"
        }
      ],
      "stateMutability": "view",
      "type": "function"
    },
    {
      "inputs": [
        {
          "internalType": "bytes32",
          "name": "",
          "type": "bytes32"
        }
      ],
      "name": "expectingRequestWithIdToBeFulfilled",
      "outputs": [
        {
          "internalType": "bool",
          "name": "",
          "type": "bool"
        }
      ],
      "stateMutability": "view",
      "type": "function"
    },
    {
      "inputs": [
        {
          "internalType": "bytes32",
          "name": "requestId",
          "type": "bytes32"
        },
        {
          "internalType": "bytes",
          "name": "data",
          "type": "bytes"
        }
      ],
      "name": "fulfillUint256Array",
      "outputs": [],
      "stateMutability": "nonpayable",
      "type": "function"
    },
    {
      "inputs": [
        {
          "internalType": "address",
          "name": "_airnode",
          "type": "address"
        },
        {
          "internalType": "bytes32",
          "name": "_endpointIdUint256",
          "type": "bytes32"
        },
        {
          "internalType": "bytes32",
          "name": "_endpointIdUint256Array",
          "type": "bytes32"
        },
        {
          "internalType": "address",
          "name": "_sponsorWallet",
          "type": "address"
        }
      ],
      "name": "setRequestParameters",
      "outputs": [],
      "stateMutability": "nonpayable",
      "type": "function"
    },
    {
      "inputs": [],
      "name": "sponsorWallet",
      "outputs": [
        {
          "internalType": "address",
          "name": "",
          "type": "address"
        }
      ],
      "stateMutability": "view",
      "type": "function"
    }
  ],
  "bytecode": {
    "object": "0x60a060405234801561001057600080fd5b5060405161066238038061066283398101604081905261002f9161009d565b6001600160a01b0381166080819052604051632b77c09f60e21b81523060048201526001602482015282919063addf027c90604401600060405180830381600087803b15801561007e57600080fd5b505af1158015610092573d6000803e3d6000fd5b5050505050506100cd565b6000602082840312156100af57600080fd5b81516001600160a01b03811681146100c657600080fd5b9392505050565b6080516105746100ee6000396000818160d6015261017d01526105746000f3fe608060405234801561001057600080fd5b50600436106100885760003560e01c8063851244f71161005b578063851244f714610110578063a19954af14610143578063a36ff4d81461014c578063bf90fb4e1461015f57600080fd5b806307b9fc571461008d5780630d31d52a146100a95780635675e4e4146100be57806371bab666146100d1575b600080fd5b61009660025481565b6040519081526020015b60405180910390f35b6100bc6100b736600461032f565b610172565b005b6100bc6100cc3660046103c7565b6102a8565b6100f87f000000000000000000000000000000000000000000000000000000000000000081565b6040516001600160a01b0390911681526020016100a0565b61013361011e36600461040d565b60056020526000908152604090205460ff1681565b60405190151581526020016100a0565b61009660035481565b6001546100f8906001600160a01b031681565b6004546100f8906001600160a01b031681565b336001600160a01b037f000000000000000000000000000000000000000000000000000000000000000016146101e85760405162461bcd60e51b8152602060048201526016602482015275043616c6c6572206e6f74204169726e6f6465205252560541b60448201526064015b60405180910390fd5b60008381526005602052604090205460ff166102465760405162461bcd60e51b815260206004820181905260248201527f52657175657374204944206e6f74206b626c6f636b2e74696d657374616d706e60448201526064016101df565b6000838152600560205260408120805460ff191690556102688284018461043c565b9050837f47b5f552f55573ad9b766ef18360830d3e90ecdfbef4c7bea49379a0ce64913c8260405161029a91906104fa565b60405180910390a250505050565b6000546001600160a01b031633146102f55760405162461bcd60e51b815260206004820152601060248201526f29b2b73232b9103737ba1037bbb732b960811b60448201526064016101df565b600180546001600160a01b039586166001600160a01b03199182161790915560029390935560039190915560048054919093169116179055565b60008060006040848603121561034457600080fd5b83359250602084013567ffffffffffffffff8082111561036357600080fd5b818601915086601f83011261037757600080fd5b81358181111561038657600080fd5b87602082850101111561039857600080fd5b6020830194508093505050509250925092565b80356001600160a01b03811681146103c257600080fd5b919050565b600080600080608085870312156103dd57600080fd5b6103e6856103ab565b93506020850135925060408501359150610402606086016103ab565b905092959194509250565b60006020828403121561041f57600080fd5b5035919050565b634e487b7160e01b600052604160045260246000fd5b6000602080838503121561044f57600080fd5b823567ffffffffffffffff8082111561046757600080fd5b818501915085601f83011261047b57600080fd5b81358181111561048d5761048d610426565b8060051b604051601f19603f830116810181811085821117156104b2576104b2610426565b6040529182528482019250838101850191888311156104d057600080fd5b938501935b828510156104ee578435845293850193928501926104d5565b98975050505050505050565b6020808252825182820181905260009190848201906040850190845b8181101561053257835183529284019291840191600101610516565b5090969550505050505056fea26469706673582212203d792d572c7f6205c3fb53a9bcae58cb2b51119a426c70e90a81741df110046c64736f6c63430008100033",
    "linkReferences": {}
  },
  "methodIdentifiers": {
    "airnode()": "a36ff4d8",
    "airnodeRrp()": "71bab666",
    "endpointIdUint256()": "07b9fc57",
    "endpointIdUint256Array()": "a19954af",
    "expectingRequestWithIdToBeFulfilled(bytes32)": "851244f7",
    "fulfillUint256Array(bytes32,bytes)": "0d31d52a",
    "setRequestParameters(address,bytes32,bytes32,address)": "5675e4e4",
    "sponsorWallet()": "bf90fb4e"
  },
  "id": 5
}