{
  "abi": [
    {
      "anonymous": false,
      "inputs": [
        {
          "indexed": true,
          "internalType": "bytes32",
          "name": "templateId",
          "type": "bytes32"
        },
        {
          "indexed": false,
          "internalType": "address",
          "name": "airnode",
          "type": "address"
        },
        {
          "indexed": false,
          "internalType": "bytes32",
          "name": "endpointId",
          "type": "bytes32"
        },
        {
          "indexed": false,
          "internalType": "bytes",
          "name": "parameters",
          "type": "bytes"
        }
      ],
      "name": "CreatedTemplate",
      "type": "event"
    },
    {
      "anonymous": false,
      "inputs": [
        {
          "indexed": true,
          "internalType": "address",
          "name": "airnode",
          "type": "address"
        },
        {
          "indexed": true,
          "internalType": "bytes32",
          "name": "requestId",
          "type": "bytes32"
        },
        {
          "indexed": false,
          "internalType": "string",
          "name": "errorMessage",
          "type": "string"
        }
      ],
      "name": "FailedRequest",
      "type": "event"
    },
    {
      "anonymous": false,
      "inputs": [
        {
          "indexed": true,
          "internalType": "address",
          "name": "airnode",
          "type": "address"
        },
        {
          "indexed": true,
          "internalType": "bytes32",
          "name": "requestId",
          "type": "bytes32"
        },
        {
          "indexed": false,
          "internalType": "bytes",
          "name": "data",
          "type": "bytes"
        }
      ],
      "name": "FulfilledRequest",
      "type": "event"
    },
    {
      "anonymous": false,
      "inputs": [
        {
          "indexed": true,
          "internalType": "address",
          "name": "airnode",
          "type": "address"
        },
        {
          "indexed": true,
          "internalType": "address",
          "name": "sponsor",
          "type": "address"
        },
        {
          "indexed": true,
          "internalType": "bytes32",
          "name": "withdrawalRequestId",
          "type": "bytes32"
        },
        {
          "indexed": false,
          "internalType": "address",
          "name": "sponsorWallet",
          "type": "address"
        },
        {
          "indexed": false,
          "internalType": "uint256",
          "name": "amount",
          "type": "uint256"
        }
      ],
      "name": "FulfilledWithdrawal",
      "type": "event"
    },
    {
      "anonymous": false,
      "inputs": [
        {
          "indexed": true,
          "internalType": "address",
          "name": "airnode",
          "type": "address"
        },
        {
          "indexed": true,
          "internalType": "bytes32",
          "name": "requestId",
          "type": "bytes32"
        },
        {
          "indexed": false,
          "internalType": "uint256",
          "name": "requesterRequestCount",
          "type": "uint256"
        },
        {
          "indexed": false,
          "internalType": "uint256",
          "name": "chainId",
          "type": "uint256"
        },
        {
          "indexed": false,
          "internalType": "address",
          "name": "requester",
          "type": "address"
        },
        {
          "indexed": false,
          "internalType": "bytes32",
          "name": "endpointId",
          "type": "bytes32"
        },
        {
          "indexed": false,
          "internalType": "address",
          "name": "sponsor",
          "type": "address"
        },
        {
          "indexed": false,
          "internalType": "address",
          "name": "sponsorWallet",
          "type": "address"
        },
        {
          "indexed": false,
          "internalType": "address",
          "name": "fulfillAddress",
          "type": "address"
        },
        {
          "indexed": false,
          "internalType": "bytes4",
          "name": "fulfillFunctionId",
          "type": "bytes4"
        },
        {
          "indexed": false,
          "internalType": "bytes",
          "name": "parameters",
          "type": "bytes"
        }
      ],
      "name": "MadeFullRequest",
      "type": "event"
    },
    {
      "anonymous": false,
      "inputs": [
        {
          "indexed": true,
          "internalType": "address",
          "name": "airnode",
          "type": "address"
        },
        {
          "indexed": true,
          "internalType": "bytes32",
          "name": "requestId",
          "type": "bytes32"
        },
        {
          "indexed": false,
          "internalType": "uint256",
          "name": "requesterRequestCount",
          "type": "uint256"
        },
        {
          "indexed": false,
          "internalType": "uint256",
          "name": "chainId",
          "type": "uint256"
        },
        {
          "indexed": false,
          "internalType": "address",
          "name": "requester",
          "type": "address"
        },
        {
          "indexed": false,
          "internalType": "bytes32",
          "name": "templateId",
          "type": "bytes32"
        },
        {
          "indexed": false,
          "internalType": "address",
          "name": "sponsor",
          "type": "address"
        },
        {
          "indexed": false,
          "internalType": "address",
          "name": "sponsorWallet",
          "type": "address"
        },
        {
          "indexed": false,
          "internalType": "address",
          "name": "fulfillAddress",
          "type": "address"
        },
        {
          "indexed": false,
          "internalType": "bytes4",
          "name": "fulfillFunctionId",
          "type": "bytes4"
        },
        {
          "indexed": false,
          "internalType": "bytes",
          "name": "parameters",
          "type": "bytes"
        }
      ],
      "name": "MadeTemplateRequest",
      "type": "event"
    },
    {
      "anonymous": false,
      "inputs": [
        {
          "indexed": true,
          "internalType": "address",
          "name": "airnode",
          "type": "address"
        },
        {
          "indexed": true,
          "internalType": "address",
          "name": "sponsor",
          "type": "address"
        },
        {
          "indexed": true,
          "internalType": "bytes32",
          "name": "withdrawalRequestId",
          "type": "bytes32"
        },
        {
          "indexed": false,
          "internalType": "address",
          "name": "sponsorWallet",
          "type": "address"
        }
      ],
      "name": "RequestedWithdrawal",
      "type": "event"
    },
    {
      "anonymous": false,
      "inputs": [
        {
          "indexed": true,
          "internalType": "address",
          "name": "sponsor",
          "type": "address"
        },
        {
          "indexed": true,
          "internalType": "address",
          "name": "requester",
          "type": "address"
        },
        {
          "indexed": false,
          "internalType": "bool",
          "name": "sponsorshipStatus",
          "type": "bool"
        }
      ],
      "name": "SetSponsorshipStatus",
      "type": "event"
    },
    {
      "inputs": [
        {
          "internalType": "address[]",
          "name": "authorizers",
          "type": "address[]"
        },
        {
          "internalType": "address",
          "name": "airnode",
          "type": "address"
        },
        {
          "internalType": "bytes32",
          "name": "requestId",
          "type": "bytes32"
        },
        {
          "internalType": "bytes32",
          "name": "endpointId",
          "type": "bytes32"
        },
        {
          "internalType": "address",
          "name": "sponsor",
          "type": "address"
        },
        {
          "internalType": "address",
          "name": "requester",
          "type": "address"
        }
      ],
      "name": "checkAuthorizationStatus",
      "outputs": [
        {
          "internalType": "bool",
          "name": "status",
          "type": "bool"
        }
      ],
      "stateMutability": "view",
      "type": "function"
    },
    {
      "inputs": [
        {
          "internalType": "address[]",
          "name": "authorizers",
          "type": "address[]"
        },
        {
          "internalType": "address",
          "name": "airnode",
          "type": "address"
        },
        {
          "internalType": "bytes32[]",
          "name": "requestIds",
          "type": "bytes32[]"
        },
        {
          "internalType": "bytes32[]",
          "name": "endpointIds",
          "type": "bytes32[]"
        },
        {
          "internalType": "address[]",
          "name": "sponsors",
          "type": "address[]"
        },
        {
          "internalType": "address[]",
          "name": "requesters",
          "type": "address[]"
        }
      ],
      "name": "checkAuthorizationStatuses",
      "outputs": [
        {
          "internalType": "bool[]",
          "name": "statuses",
          "type": "bool[]"
        }
      ],
      "stateMutability": "view",
      "type": "function"
    },
    {
      "inputs": [
        {
          "internalType": "address",
          "name": "airnode",
          "type": "address"
        },
        {
          "internalType": "bytes32",
          "name": "endpointId",
          "type": "bytes32"
        },
        {
          "internalType": "bytes",
          "name": "parameters",
          "type": "bytes"
        }
      ],
      "name": "createTemplate",
      "outputs": [
        {
          "internalType": "bytes32",
          "name": "templateId",
          "type": "bytes32"
        }
      ],
      "stateMutability": "nonpayable",
      "type": "function"
    },
    {
      "inputs": [
        {
          "internalType": "bytes32",
          "name": "requestId",
          "type": "bytes32"
        },
        {
          "internalType": "address",
          "name": "airnode",
          "type": "address"
        },
        {
          "internalType": "address",
          "name": "fulfillAddress",
          "type": "address"
        },
        {
          "internalType": "bytes4",
          "name": "fulfillFunctionId",
          "type": "bytes4"
        },
        {
          "internalType": "string",
          "name": "errorMessage",
          "type": "string"
        }
      ],
      "name": "fail",
      "outputs": [],
      "stateMutability": "nonpayable",
      "type": "function"
    },
    {
      "inputs": [
        {
          "internalType": "bytes32",
          "name": "requestId",
          "type": "bytes32"
        },
        {
          "internalType": "address",
          "name": "airnode",
          "type": "address"
        },
        {
          "internalType": "address",
          "name": "fulfillAddress",
          "type": "address"
        },
        {
          "internalType": "bytes4",
          "name": "fulfillFunctionId",
          "type": "bytes4"
        },
        {
          "internalType": "bytes",
          "name": "data",
          "type": "bytes"
        },
        {
          "internalType": "bytes",
          "name": "signature",
          "type": "bytes"
        }
      ],
      "name": "fulfill",
      "outputs": [
        {
          "internalType": "bool",
          "name": "callSuccess",
          "type": "bool"
        },
        {
          "internalType": "bytes",
          "name": "callData",
          "type": "bytes"
        }
      ],
      "stateMutability": "nonpayable",
      "type": "function"
    },
    {
      "inputs": [
        {
          "internalType": "bytes32",
          "name": "withdrawalRequestId",
          "type": "bytes32"
        },
        {
          "internalType": "address",
          "name": "airnode",
          "type": "address"
        },
        {
          "internalType": "address",
          "name": "sponsor",
          "type": "address"
        }
      ],
      "name": "fulfillWithdrawal",
      "outputs": [],
      "stateMutability": "payable",
      "type": "function"
    },
    {
      "inputs": [
        {
          "internalType": "bytes32[]",
          "name": "templateIds",
          "type": "bytes32[]"
        }
      ],
      "name": "getTemplates",
      "outputs": [
        {
          "internalType": "address[]",
          "name": "airnodes",
          "type": "address[]"
        },
        {
          "internalType": "bytes32[]",
          "name": "endpointIds",
          "type": "bytes32[]"
        },
        {
          "internalType": "bytes[]",
          "name": "parameters",
          "type": "bytes[]"
        }
      ],
      "stateMutability": "view",
      "type": "function"
    },
    {
      "inputs": [
        {
          "internalType": "address",
          "name": "airnode",
          "type": "address"
        },
        {
          "internalType": "bytes32",
          "name": "endpointId",
          "type": "bytes32"
        },
        {
          "internalType": "address",
          "name": "sponsor",
          "type": "address"
        },
        {
          "internalType": "address",
          "name": "sponsorWallet",
          "type": "address"
        },
        {
          "internalType": "address",
          "name": "fulfillAddress",
          "type": "address"
        },
        {
          "internalType": "bytes4",
          "name": "fulfillFunctionId",
          "type": "bytes4"
        },
        {
          "internalType": "bytes",
          "name": "parameters",
          "type": "bytes"
        }
      ],
      "name": "makeFullRequest",
      "outputs": [
        {
          "internalType": "bytes32",
          "name": "requestId",
          "type": "bytes32"
        }
      ],
      "stateMutability": "nonpayable",
      "type": "function"
    },
    {
      "inputs": [
        {
          "internalType": "bytes32",
          "name": "templateId",
          "type": "bytes32"
        },
        {
          "internalType": "address",
          "name": "sponsor",
          "type": "address"
        },
        {
          "internalType": "address",
          "name": "sponsorWallet",
          "type": "address"
        },
        {
          "internalType": "address",
          "name": "fulfillAddress",
          "type": "address"
        },
        {
          "internalType": "bytes4",
          "name": "fulfillFunctionId",
          "type": "bytes4"
        },
        {
          "internalType": "bytes",
          "name": "parameters",
          "type": "bytes"
        }
      ],
      "name": "makeTemplateRequest",
      "outputs": [
        {
          "internalType": "bytes32",
          "name": "requestId",
          "type": "bytes32"
        }
      ],
      "stateMutability": "nonpayable",
      "type": "function"
    },
    {
      "inputs": [
        {
          "internalType": "bytes32",
          "name": "requestId",
          "type": "bytes32"
        }
      ],
      "name": "requestIsAwaitingFulfillment",
      "outputs": [
        {
          "internalType": "bool",
          "name": "isAwaitingFulfillment",
          "type": "bool"
        }
      ],
      "stateMutability": "view",
      "type": "function"
    },
    {
      "inputs": [
        {
          "internalType": "address",
          "name": "airnode",
          "type": "address"
        },
        {
          "internalType": "address",
          "name": "sponsorWallet",
          "type": "address"
        }
      ],
      "name": "requestWithdrawal",
      "outputs": [],
      "stateMutability": "nonpayable",
      "type": "function"
    },
    {
      "inputs": [
        {
          "internalType": "address",
          "name": "",
          "type": "address"
        }
      ],
      "name": "requesterToRequestCountPlusOne",
      "outputs": [
        {
          "internalType": "uint256",
          "name": "",
          "type": "uint256"
        }
      ],
      "stateMutability": "view",
      "type": "function"
    },
    {
      "inputs": [
        {
          "internalType": "address",
          "name": "requester",
          "type": "address"
        },
        {
          "internalType": "bool",
          "name": "sponsorshipStatus",
          "type": "bool"
        }
      ],
      "name": "setSponsorshipStatus",
      "outputs": [],
      "stateMutability": "nonpayable",
      "type": "function"
    },
    {
      "inputs": [
        {
          "internalType": "address",
          "name": "",
          "type": "address"
        },
        {
          "internalType": "address",
          "name": "",
          "type": "address"
        }
      ],
      "name": "sponsorToRequesterToSponsorshipStatus",
      "outputs": [
        {
          "internalType": "bool",
          "name": "",
          "type": "bool"
        }
      ],
      "stateMutability": "view",
      "type": "function"
    },
    {
      "inputs": [
        {
          "internalType": "address",
          "name": "",
          "type": "address"
        }
      ],
      "name": "sponsorToWithdrawalRequestCount",
      "outputs": [
        {
          "internalType": "uint256",
          "name": "",
          "type": "uint256"
        }
      ],
      "stateMutability": "view",
      "type": "function"
    },
    {
      "inputs": [
        {
          "internalType": "bytes32",
          "name": "",
          "type": "bytes32"
        }
      ],
      "name": "templates",
      "outputs": [
        {
          "internalType": "address",
          "name": "airnode",
          "type": "address"
        },
        {
          "internalType": "bytes32",
          "name": "endpointId",
          "type": "bytes32"
        },
        {
          "internalType": "bytes",
          "name": "parameters",
          "type": "bytes"
        }
      ],
      "stateMutability": "view",
      "type": "function"
    }
  ],
  "bytecode": {
    "object": "0x608060405234801561001057600080fd5b5061252d806100206000396000f3fe6080604052600436106100f35760003560e01c806376428c9b1161008a578063acbe180011610059578063acbe1800146102f7578063addf027c14610317578063ca31d58614610337578063f8fa73a11461036457600080fd5b806376428c9b146102405780637e7166f31461026f5780638a33be011461029c578063a81e9f79146102bc57600080fd5b80633c7fe5e3116100c65780633c7fe5e3146101ae57806350743bb9146101c157806352e41f99146102005780636e6be03f1461022057600080fd5b80630a631576146100f85780631d414cbd146101305780631decbf181461015257806332393f2b14610180575b600080fd5b34801561010457600080fd5b50610118610113366004611985565b610391565b604051610127939291906119f6565b60405180910390f35b34801561013c57600080fd5b5061015061014b366004611a42565b610446565b005b34801561015e57600080fd5b5061017261016d366004611ace565b61055c565b604051610127929190611b78565b34801561018c57600080fd5b506101a061019b366004611b9b565b610881565b604051908152602001610127565b6101506101bc366004611bf4565b6109f0565b3480156101cd57600080fd5b506101f06101dc366004611985565b600090815260056020526040902054151590565b6040519015158152602001610127565b34801561020c57600080fd5b5061015061021b366004611c30565b610b8a565b34801561022c57600080fd5b506101a061023b366004611cae565b610c77565b34801561024c57600080fd5b5061026061025b366004611d7d565b610eb0565b60405161012793929190611e13565b34801561027b57600080fd5b506101a061028a366004611eaa565b60046020526000908152604090205481565b3480156102a857600080fd5b506101f06102b7366004611ecc565b6110f6565b3480156102c857600080fd5b506101f06102d7366004611a42565b600360209081526000928352604080842090915290825290205460ff1681565b34801561030357600080fd5b506101a0610312366004611f54565b6111fa565b34801561032357600080fd5b50610150610332366004611ff1565b611447565b34801561034357600080fd5b50610357610352366004612028565b6114ed565b604051610127919061212b565b34801561037057600080fd5b506101a061037f366004611eaa565b60016020526000908152604090205481565b6000602081905290815260409020805460018201546002830180546001600160a01b039093169391926103c390612171565b80601f01602080910402602001604051908101604052809291908181526020018280546103ef90612171565b801561043c5780601f106104115761010080835404028352916020019161043c565b820191906000526020600020905b81548152906001019060200180831161041f57829003601f168201915b5050505050905083565b3360008181526001602052604081208054919246923092908590610469906121ac565b91829055506040805160208101959095526001600160601b0319606094851b8116918601919091529190921b166054830152606882015260880160408051601f198184030181529082905280516020918201206001600160601b0319606087811b82169385019390935233831b811660348501529185901b90911660488301529150605c0160408051808303601f19018152828252805160209182012060008581526002835292909220919091556001600160a01b03848116835283923392918716917fd48d52c7c6d0c940f3f8d07591e1800ef3a70daf79929a97ccd80b4494769fc7910160405180910390a4505050565b6000888152600560209081526040808320549051606092610585918c9133918d918d91016121d5565b60405160208183030381529060405280519060200120146105ed5760405162461bcd60e51b815260206004820152601b60248201527f496e76616c696420726571756573742066756c66696c6c6d656e74000000000060448201526064015b60405180910390fd5b886001600160a01b03166106af85858080601f016020809104026020016040519081016040528093929190818152602001838380828437600092019190915250506040516106a9925061064991508f908c908c90602001612223565b60408051601f1981840301815282825280516020918201207f19457468657265756d205369676e6564204d6573736167653a0a33320000000084830152603c8085019190915282518085039091018152605c909301909152815191012090565b9061166d565b6001600160a01b0316146106f95760405162461bcd60e51b8152602060048201526011602482015270496e76616c6964207369676e617475726560781b60448201526064016105e4565b60008a81526005602052604080822091909155516001600160a01b03891690889061072c908d908a908a90602401612266565b60408051601f198184030181529181526020820180516001600160e01b03166001600160e01b031990941693909317909252905161076a9190612280565b6000604051808303816000865af19150503d80600081146107a7576040519150601f19603f3d011682016040523d82523d6000602084013e6107ac565b606091505b50909250905081156108015789896001600160a01b03167fc0977dab79883641ece94bb6a932ca83049f561ffff8d8daaeafdbc1acce9e0a88886040516107f492919061229c565b60405180910390a3610874565b89896001600160a01b03167fc7143b2270cddda57e0087ca5e2a4325657dcab10d10f6b1f9d5ce6b41cb97fc60405161086b906020808252601f908201527f46756c66696c6c6d656e74206661696c656420756e65787065637465646c7900604082015260600190565b60405180910390a35b9850989650505050505050565b60006001600160a01b0385166108d05760405162461bcd60e51b81526020600482015260146024820152734169726e6f64652061646472657373207a65726f60601b60448201526064016105e4565b848484846040516020016108e794939291906122b0565b6040516020818303038152906040528051906020012090506040518060600160405280866001600160a01b0316815260200185815260200184848080601f01602080910402602001604051908101604052809392919081815260200183838082843760009201829052509390945250508381526020818152604091829020845181546001600160a01b0319166001600160a01b039091161781558482015160018201559184015180519293506109a692600285019291909101906118ec565b50905050807fba204bad31c4ec4b9b54164af94ae10c4e7312f22c0f9c065d6319c928ec9e7a868686866040516109e094939291906122e3565b60405180910390a2949350505050565b6040516001600160601b0319606084811b8216602084015283811b8216603484015233901b166048820152605c0160408051601f1981840301815291815281516020928301206000868152600290935291205414610a905760405162461bcd60e51b815260206004820152601e60248201527f496e76616c6964207769746864726177616c2066756c66696c6c6d656e74000060448201526064016105e4565b6000838152600260209081526040808320929092558151338152349181019190915284916001600160a01b0380851692908616917fadb4840bbd5f924665ae7e0e0c83de5c0fb40a98c9b57dba53a6c978127a622e910160405180910390a46000816001600160a01b03163460405160006040518083038185875af1925050503d8060008114610b3c576040519150601f19603f3d011682016040523d82523d6000602084013e610b41565b606091505b5050905080610b845760405162461bcd60e51b815260206004820152600f60248201526e151c985b9cd9995c8819985a5b1959608a1b60448201526064016105e4565b50505050565b600086815260056020908152604091829020549151610bb1918891339189918991016121d5565b6040516020818303038152906040528051906020012014610c145760405162461bcd60e51b815260206004820152601b60248201527f496e76616c696420726571756573742066756c66696c6c6d656e74000000000060448201526064016105e4565b600560008781526020019081526020016000206000905585856001600160a01b03167fc7143b2270cddda57e0087ca5e2a4325657dcab10d10f6b1f9d5ce6b41cb97fc8484604051610c6792919061229c565b60405180910390a3505050505050565b60006001600160a01b038916610cc65760405162461bcd60e51b81526020600482015260146024820152734169726e6f64652061646472657373207a65726f60601b60448201526064016105e4565b6001600160a01b038516301415610d1f5760405162461bcd60e51b815260206004820152601a60248201527f46756c66696c6c2061646472657373204169726e6f646552727000000000000060448201526064016105e4565b6001600160a01b038716600090815260036020908152604080832033845290915290205460ff16610d8c5760405162461bcd60e51b815260206004820152601760248201527614995c5d595cdd195c881b9bdd081cdc1bdb9cdbdc9959604a1b60448201526064016105e4565b600060046000336001600160a01b03166001600160a01b03168152602001908152602001600020549050463033838d8d8d8d8d8d8d8d604051602001610ddd9c9b9a99989796959493929190612315565b60405160208183030381529060405280519060200120915089878787604051602001610e0c94939291906121d5565b60408051601f1981840301815291815281516020928301206000858152600584528281209190915533815260049092528120805491610e4a836121ac565b9190505550818a6001600160a01b03167f3a52c462346de2e9436a3868970892956828a11b9c43da1ed43740b12e1125ae8346338e8e8e8e8e8e8e604051610e9b9a9998979695949392919061239e565b60405180910390a35098975050505050505050565b60608080836001600160401b03811115610ecc57610ecc612412565b604051908082528060200260200182016040528015610ef5578160200160208202803683370190505b509250836001600160401b03811115610f1057610f10612412565b604051908082528060200260200182016040528015610f39578160200160208202803683370190505b509150836001600160401b03811115610f5457610f54612412565b604051908082528060200260200182016040528015610f8757816020015b6060815260200190600190039081610f725790505b50905060005b848110156110ee576000806000888885818110610fac57610fac612428565b90506020020135815260200190815260200160002090508060000160009054906101000a90046001600160a01b0316858381518110610fed57610fed612428565b60200260200101906001600160a01b031690816001600160a01b031681525050806001015484838151811061102457611024612428565b60200260200101818152505080600201805461103f90612171565b80601f016020809104026020016040519081016040528092919081815260200182805461106b90612171565b80156110b85780601f1061108d576101008083540402835291602001916110b8565b820191906000526020600020905b81548152906001019060200180831161109b57829003601f168201915b50505050508383815181106110cf576110cf612428565b60200260200101819052505080806110e6906121ac565b915050610f8d565b509250925092565b6000805b878110156111e957600089898381811061111657611116612428565b905060200201602081019061112b9190611eaa565b6040516329b915b360e01b8152600481018990526001600160a01b038a811660248301526044820189905287811660648301528681166084830152919250908216906329b915b39060a40160206040518083038186803b15801561118e57600080fd5b505afa1580156111a2573d6000803e3d6000fd5b505050506040513d601f19601f820116820180604052508101906111c6919061243e565b156111d6576001925050506111ef565b50806111e1816121ac565b9150506110fa565b50600090505b979650505050505050565b6000878152602081905260408120546001600160a01b03168061125f5760405162461bcd60e51b815260206004820152601760248201527f54656d706c61746520646f6573206e6f7420657869737400000000000000000060448201526064016105e4565b6001600160a01b0386163014156112b85760405162461bcd60e51b815260206004820152601a60248201527f46756c66696c6c2061646472657373204169726e6f646552727000000000000060448201526064016105e4565b6001600160a01b038816600090815260036020908152604080832033845290915290205460ff166113255760405162461bcd60e51b815260206004820152601760248201527614995c5d595cdd195c881b9bdd081cdc1bdb9cdbdc9959604a1b60448201526064016105e4565b600060046000336001600160a01b03166001600160a01b03168152602001908152602001600020549050463033838d8d8d8d8d8d8d6040516020016113749b9a9998979695949392919061245b565b604051602081830303815290604052805190602001209250818888886040516020016113a394939291906121d5565b60408051601f19818403018152918152815160209283012060008681526005845282812091909155338152600490925281208054916113e1836121ac565b919050555082826001600160a01b03167feb39930cdcbb560e6422558a2468b93a215af60063622e63cbb165eba14c32038346338f8f8f8f8f8f8f6040516114329a9998979695949392919061239e565b60405180910390a35050979650505050505050565b6001600160a01b038216600090815260046020526040902054611481576001600160a01b0382166000908152600460205260409020600190555b3360008181526003602090815260408083206001600160a01b03871680855290835292819020805460ff191686151590811790915590519081529192917fc2e532a12bbcce2bfa2ef9e4bee80180e4e1b1f78618f0d20bc49a648b577c56910160405180910390a35050565b606087861480156114fd57508784145b801561150857508782145b6115545760405162461bcd60e51b815260206004820152601960248201527f556e657175616c20706172616d65746572206c656e677468730000000000000060448201526064016105e4565b876001600160401b0381111561156c5761156c612412565b604051908082528060200260200182016040528015611595578160200160208202803683370190505b50905060005b8881101561165d576116298d8d8d8d8d868181106115bb576115bb612428565b905060200201358c8c878181106115d4576115d4612428565b905060200201358b8b888181106115ed576115ed612428565b90506020020160208101906116029190611eaa565b8a8a8981811061161457611614612428565b90506020020160208101906102b79190611eaa565b82828151811061163b5761163b612428565b9115156020928302919091019091015280611655816121ac565b91505061159b565b509b9a5050505050505050505050565b600080600061167c8585611691565b91509150611689816116d7565b509392505050565b6000808251604114156116c85760208301516040840151606085015160001a6116bc87828585611828565b945094505050506116d0565b506000905060025b9250929050565b60008160048111156116eb576116eb6124e1565b14156116f45750565b6001816004811115611708576117086124e1565b14156117565760405162461bcd60e51b815260206004820152601860248201527f45434453413a20696e76616c6964207369676e6174757265000000000000000060448201526064016105e4565b600281600481111561176a5761176a6124e1565b14156117b85760405162461bcd60e51b815260206004820152601f60248201527f45434453413a20696e76616c6964207369676e6174757265206c656e6774680060448201526064016105e4565b60038160048111156117cc576117cc6124e1565b14156118255760405162461bcd60e51b815260206004820152602260248201527f45434453413a20696e76616c6964207369676e6174757265202773272076616c604482015261756560f01b60648201526084016105e4565b50565b6000807f7fffffffffffffffffffffffffffffff5d576e7357a4501ddfe92f46681b20a083111561185f57506000905060036118e3565b6040805160008082526020820180845289905260ff881692820192909252606081018690526080810185905260019060a0016020604051602081039080840390855afa1580156118b3573d6000803e3d6000fd5b5050604051601f1901519150506001600160a01b0381166118dc576000600192509250506118e3565b9150600090505b94509492505050565b8280546118f890612171565b90600052602060002090601f01602090048101928261191a5760008555611960565b82601f1061193357805160ff1916838001178555611960565b82800160010185558215611960579182015b82811115611960578251825591602001919060010190611945565b5061196c929150611970565b5090565b5b8082111561196c5760008155600101611971565b60006020828403121561199757600080fd5b5035919050565b60005b838110156119b95781810151838201526020016119a1565b83811115610b845750506000910152565b600081518084526119e281602086016020860161199e565b601f01601f19169290920160200192915050565b60018060a01b0384168152826020820152606060408201526000611a1d60608301846119ca565b95945050505050565b80356001600160a01b0381168114611a3d57600080fd5b919050565b60008060408385031215611a5557600080fd5b611a5e83611a26565b9150611a6c60208401611a26565b90509250929050565b80356001600160e01b031981168114611a3d57600080fd5b60008083601f840112611a9f57600080fd5b5081356001600160401b03811115611ab657600080fd5b6020830191508360208285010111156116d057600080fd5b60008060008060008060008060c0898b031215611aea57600080fd5b88359750611afa60208a01611a26565b9650611b0860408a01611a26565b9550611b1660608a01611a75565b945060808901356001600160401b0380821115611b3257600080fd5b611b3e8c838d01611a8d565b909650945060a08b0135915080821115611b5757600080fd5b50611b648b828c01611a8d565b999c989b5096995094979396929594505050565b8215158152604060208201526000611b9360408301846119ca565b949350505050565b60008060008060608587031215611bb157600080fd5b611bba85611a26565b93506020850135925060408501356001600160401b03811115611bdc57600080fd5b611be887828801611a8d565b95989497509550505050565b600080600060608486031215611c0957600080fd5b83359250611c1960208501611a26565b9150611c2760408501611a26565b90509250925092565b60008060008060008060a08789031215611c4957600080fd5b86359550611c5960208801611a26565b9450611c6760408801611a26565b9350611c7560608801611a75565b925060808701356001600160401b03811115611c9057600080fd5b611c9c89828a01611a8d565b979a9699509497509295939492505050565b60008060008060008060008060e0898b031215611cca57600080fd5b611cd389611a26565b975060208901359650611ce860408a01611a26565b9550611cf660608a01611a26565b9450611d0460808a01611a26565b9350611d1260a08a01611a75565b925060c08901356001600160401b03811115611d2d57600080fd5b611b648b828c01611a8d565b60008083601f840112611d4b57600080fd5b5081356001600160401b03811115611d6257600080fd5b6020830191508360208260051b85010111156116d057600080fd5b60008060208385031215611d9057600080fd5b82356001600160401b03811115611da657600080fd5b611db285828601611d39565b90969095509350505050565b600081518084526020808501808196508360051b8101915082860160005b85811015611e06578284038952611df48483516119ca565b98850198935090840190600101611ddc565b5091979650505050505050565b606080825284519082018190526000906020906080840190828801845b82811015611e555781516001600160a01b031684529284019290840190600101611e30565b5050508381038285015285518082528683019183019060005b81811015611e8a57835183529284019291840191600101611e6e565b50508481036040860152611e9e8187611dbe565b98975050505050505050565b600060208284031215611ebc57600080fd5b611ec582611a26565b9392505050565b600080600080600080600060c0888a031215611ee757600080fd5b87356001600160401b03811115611efd57600080fd5b611f098a828b01611d39565b9098509650611f1c905060208901611a26565b94506040880135935060608801359250611f3860808901611a26565b9150611f4660a08901611a26565b905092959891949750929550565b600080600080600080600060c0888a031215611f6f57600080fd5b87359650611f7f60208901611a26565b9550611f8d60408901611a26565b9450611f9b60608901611a26565b9350611fa960808901611a75565b925060a08801356001600160401b03811115611fc457600080fd5b611fd08a828b01611a8d565b989b979a50959850939692959293505050565b801515811461182557600080fd5b6000806040838503121561200457600080fd5b61200d83611a26565b9150602083013561201d81611fe3565b809150509250929050565b600080600080600080600080600080600060c08c8e03121561204957600080fd5b6001600160401b03808d35111561205f57600080fd5b61206c8e8e358f01611d39565b909c509a5061207d60208e01611a26565b99508060408e0135111561209057600080fd5b6120a08e60408f01358f01611d39565b909950975060608d01358110156120b657600080fd5b6120c68e60608f01358f01611d39565b909750955060808d01358110156120dc57600080fd5b6120ec8e60808f01358f01611d39565b909550935060a08d013581101561210257600080fd5b506121138d60a08e01358e01611d39565b81935080925050509295989b509295989b9093969950565b6020808252825182820181905260009190848201906040850190845b81811015612165578351151583529284019291840191600101612147565b50909695505050505050565b600181811c9082168061218557607f821691505b602082108114156121a657634e487b7160e01b600052602260045260246000fd5b50919050565b60006000198214156121ce57634e487b7160e01b600052601160045260246000fd5b5060010190565b6001600160601b0319606095861b8116825293851b841660148201529190931b90911660288201526001600160e01b0319909116603c82015260400190565b81818437506000910190815290565b838152818360208301376000910160200190815292915050565b81835281816020850137506000828201602090810191909152601f909101601f19169091010190565b838152604060208201526000611a1d60408301848661223d565b6000825161229281846020870161199e565b9190910192915050565b602081526000611b9360208301848661223d565b6bffffffffffffffffffffffff198560601b16815283601482015281836034830137600091016034019081529392505050565b60018060a01b038516815283602082015260606040820152600061230b60608301848661223d565b9695505050505050565b8c81526001600160601b031960608d811b821660208401528c811b82166034840152604883018c90528a811b82166068840152607c83018a905288811b8216609c84015287811b821660b084015286901b1660c48201526001600160e01b0319841660d8820152600061238c60dc83018486612214565b9e9d5050505050505050505050505050565b8a8152602081018a90526001600160a01b03898116604083015260608201899052878116608083015286811660a0830152851660c08201526001600160e01b0319841660e08201526101206101008201819052600090612401838201858761223d565b9d9c50505050505050505050505050565b634e487b7160e01b600052604160045260246000fd5b634e487b7160e01b600052603260045260246000fd5b60006020828403121561245057600080fd5b8151611ec581611fe3565b8b815260006bffffffffffffffffffffffff19808d60601b166020840152808c60601b1660348401528a6048840152896068840152808960601b166088840152808860601b16609c840152808760601b1660b08401525063ffffffff60e01b851660c4830152828460c8840137506000910160c8019081529a9950505050505050505050565b634e487b7160e01b600052602160045260246000fdfea2646970667358221220739f3eda28cc7f1d8cfc2381711df780786d35950c976b25028c31179eb3179064736f6c63430008090033",
    "linkReferences": {}
  },
  "methodIdentifiers": {
    "checkAuthorizationStatus(address[],address,bytes32,bytes32,address,address)": "8a33be01",
    "checkAuthorizationStatuses(address[],address,bytes32[],bytes32[],address[],address[])": "ca31d586",
    "createTemplate(address,bytes32,bytes)": "32393f2b",
    "fail(bytes32,address,address,bytes4,string)": "52e41f99",
    "fulfill(bytes32,address,address,bytes4,bytes,bytes)": "1decbf18",
    "fulfillWithdrawal(bytes32,address,address)": "3c7fe5e3",
    "getTemplates(bytes32[])": "76428c9b",
    "makeFullRequest(address,bytes32,address,address,address,bytes4,bytes)": "6e6be03f",
    "makeTemplateRequest(bytes32,address,address,address,bytes4,bytes)": "acbe1800",
    "requestIsAwaitingFulfillment(bytes32)": "50743bb9",
    "requestWithdrawal(address,address)": "1d414cbd",
    "requesterToRequestCountPlusOne(address)": "7e7166f3",
    "setSponsorshipStatus(address,bool)": "addf027c",
    "sponsorToRequesterToSponsorshipStatus(address,address)": "a81e9f79",
    "sponsorToWithdrawalRequestCount(address)": "f8fa73a1",
    "templates(bytes32)": "0a631576"
  },
  "id": 1
}