{
  "abi": [
    {
      "inputs": [
        {
          "internalType": "address[]",
          "name": "authorizers",
          "type": "address[]"
        },
        {
          "internalType": "address",
          "name": "airnode",
          "type": "address"
        },
        {
          "internalType": "bytes32",
          "name": "requestId",
          "type": "bytes32"
        },
        {
          "internalType": "bytes32",
          "name": "endpointId",
          "type": "bytes32"
        },
        {
          "internalType": "address",
          "name": "sponsor",
          "type": "address"
        },
        {
          "internalType": "address",
          "name": "requester",
          "type": "address"
        }
      ],
      "name": "checkAuthorizationStatus",
      "outputs": [
        {
          "internalType": "bool",
          "name": "status",
          "type": "bool"
        }
      ],
      "stateMutability": "view",
      "type": "function"
    },
    {
      "inputs": [
        {
          "internalType": "address[]",
          "name": "authorizers",
          "type": "address[]"
        },
        {
          "internalType": "address",
          "name": "airnode",
          "type": "address"
        },
        {
          "internalType": "bytes32[]",
          "name": "requestIds",
          "type": "bytes32[]"
        },
        {
          "internalType": "bytes32[]",
          "name": "endpointIds",
          "type": "bytes32[]"
        },
        {
          "internalType": "address[]",
          "name": "sponsors",
          "type": "address[]"
        },
        {
          "internalType": "address[]",
          "name": "requesters",
          "type": "address[]"
        }
      ],
      "name": "checkAuthorizationStatuses",
      "outputs": [
        {
          "internalType": "bool[]",
          "name": "statuses",
          "type": "bool[]"
        }
      ],
      "stateMutability": "view",
      "type": "function"
    }
  ],
  "bytecode": {
    "object": "0x608060405234801561001057600080fd5b50610616806100206000396000f3fe608060405234801561001057600080fd5b50600436106100365760003560e01c80638a33be011461003b578063ca31d58614610063575b600080fd5b61004e610049366004610374565b610083565b60405190151581526020015b60405180910390f35b6100766100713660046103fd565b610187565b60405161005a9190610501565b6000805b878110156101765760008989838181106100a3576100a3610547565b90506020020160208101906100b8919061055d565b6040516329b915b360e01b8152600481018990526001600160a01b038a811660248301526044820189905287811660648301528681166084830152919250908216906329b915b39060a40160206040518083038186803b15801561011b57600080fd5b505afa15801561012f573d6000803e3d6000fd5b505050506040513d601f19601f82011682018060405250810190610153919061057f565b156101635760019250505061017c565b508061016e816105a1565b915050610087565b50600090505b979650505050505050565b6060878614801561019757508784145b80156101a257508782145b6101f25760405162461bcd60e51b815260206004820152601960248201527f556e657175616c20706172616d65746572206c656e6774687300000000000000604482015260640160405180910390fd5b8767ffffffffffffffff81111561020b5761020b6105ca565b604051908082528060200260200182016040528015610234578160200160208202803683370190505b50905060005b888110156102fc576102c88d8d8d8d8d8681811061025a5761025a610547565b905060200201358c8c8781811061027357610273610547565b905060200201358b8b8881811061028c5761028c610547565b90506020020160208101906102a1919061055d565b8a8a898181106102b3576102b3610547565b9050602002016020810190610049919061055d565b8282815181106102da576102da610547565b91151560209283029190910190910152806102f4816105a1565b91505061023a565b509b9a5050505050505050505050565b60008083601f84011261031e57600080fd5b50813567ffffffffffffffff81111561033657600080fd5b6020830191508360208260051b850101111561035157600080fd5b9250929050565b80356001600160a01b038116811461036f57600080fd5b919050565b600080600080600080600060c0888a03121561038f57600080fd5b873567ffffffffffffffff8111156103a657600080fd5b6103b28a828b0161030c565b90985096506103c5905060208901610358565b945060408801359350606088013592506103e160808901610358565b91506103ef60a08901610358565b905092959891949750929550565b600080600080600080600080600080600060c08c8e03121561041e57600080fd5b67ffffffffffffffff808d35111561043557600080fd5b6104428e8e358f0161030c565b909c509a5061045360208e01610358565b99508060408e0135111561046657600080fd5b6104768e60408f01358f0161030c565b909950975060608d013581101561048c57600080fd5b61049c8e60608f01358f0161030c565b909750955060808d01358110156104b257600080fd5b6104c28e60808f01358f0161030c565b909550935060a08d01358110156104d857600080fd5b506104e98d60a08e01358e0161030c565b81935080925050509295989b509295989b9093969950565b6020808252825182820181905260009190848201906040850190845b8181101561053b57835115158352928401929184019160010161051d565b50909695505050505050565b634e487b7160e01b600052603260045260246000fd5b60006020828403121561056f57600080fd5b61057882610358565b9392505050565b60006020828403121561059157600080fd5b8151801515811461057857600080fd5b60006000198214156105c357634e487b7160e01b600052601160045260246000fd5b5060010190565b634e487b7160e01b600052604160045260246000fdfea26469706673582212202c457a7b82f596c44c6bb143da1bb4894724d31bada9079684c3b6f17f65662c64736f6c63430008090033",
    "linkReferences": {}
  },
  "methodIdentifiers": {
    "checkAuthorizationStatus(address[],address,bytes32,bytes32,address,address)": "8a33be01",
    "checkAuthorizationStatuses(address[],address,bytes32[],bytes32[],address[],address[])": "ca31d586"
  },
  "id": 2
}